{
  "_format": "hh-sol-artifact-1",
  "contractName": "Vesting",
  "sourceName": "contracts/Vesting.sol",
  "abi": [
    {
      "inputs": [],
      "stateMutability": "nonpayable",
      "type": "constructor"
    },
    {
      "anonymous": false,
      "inputs": [
        {
          "indexed": false,
          "internalType": "address",
          "name": "receiver",
          "type": "address"
        },
        {
          "indexed": false,
          "internalType": "uint256",
          "name": "tokensMinted",
          "type": "uint256"
        }
      ],
      "name": "Minted",
      "type": "event"
    },
    {
      "anonymous": false,
      "inputs": [
        {
          "indexed": false,
          "internalType": "string",
          "name": "tokenName",
          "type": "string"
        },
        {
          "indexed": false,
          "internalType": "string",
          "name": "tokenSymbol",
          "type": "string"
        },
        {
          "indexed": false,
          "internalType": "address",
          "name": "contractAddress",
          "type": "address"
        },
        {
          "indexed": false,
          "internalType": "address",
          "name": "admin",
          "type": "address"
        }
      ],
      "name": "OrganisationListed",
      "type": "event"
    },
    {
      "anonymous": false,
      "inputs": [
        {
          "indexed": false,
          "internalType": "enum Vesting.UserRole",
          "name": "userRole",
          "type": "uint8"
        },
        {
          "indexed": false,
          "internalType": "address",
          "name": "organisationAddress",
          "type": "address"
        }
      ],
      "name": "Whitelist",
      "type": "event"
    },
    {
      "anonymous": false,
      "inputs": [
        {
          "indexed": false,
          "internalType": "address",
          "name": "organisationAddress",
          "type": "address"
        },
        {
          "indexed": false,
          "internalType": "enum Vesting.UserRole",
          "name": "userRole",
          "type": "uint8"
        },
        {
          "indexed": false,
          "internalType": "address",
          "name": "stakeHolderAddress",
          "type": "address"
        },
        {
          "indexed": false,
          "internalType": "uint256",
          "name": "timeLock",
          "type": "uint256"
        },
        {
          "indexed": false,
          "internalType": "uint256",
          "name": "tokens",
          "type": "uint256"
        }
      ],
      "name": "addedStakeHolder",
      "type": "event"
    },
    {
      "inputs": [
        {
          "internalType": "enum Vesting.UserRole",
          "name": "_userRole",
          "type": "uint8"
        },
        {
          "internalType": "address",
          "name": "_stakeHolderAddress",
          "type": "address"
        },
        {
          "internalType": "uint256",
          "name": "_timeLock",
          "type": "uint256"
        },
        {
          "internalType": "uint256",
          "name": "_tokens",
          "type": "uint256"
        },
        {
          "internalType": "address",
          "name": "_organisationAddress",
          "type": "address"
        }
      ],
      "name": "addStakeHolders",
      "outputs": [],
      "stateMutability": "nonpayable",
      "type": "function"
    },
    {
      "inputs": [
        {
          "internalType": "address",
          "name": "_organisationAddress",
          "type": "address"
        },
        {
          "internalType": "enum Vesting.UserRole",
          "name": "_userRole",
          "type": "uint8"
        }
      ],
      "name": "getHolders",
      "outputs": [
        {
          "components": [
            {
              "internalType": "enum Vesting.UserRole",
              "name": "userType",
              "type": "uint8"
            },
            {
              "internalType": "address",
              "name": "stakeHolderAddress",
              "type": "address"
            },
            {
              "internalType": "uint256",
              "name": "timeLock",
              "type": "uint256"
            },
            {
              "internalType": "uint256",
              "name": "tokens",
              "type": "uint256"
            },
            {
              "internalType": "bool",
              "name": "isWhiteListed",
              "type": "bool"
            }
          ],
          "internalType": "struct Vesting.stakeHolder[]",
          "name": "",
          "type": "tuple[]"
        }
      ],
      "stateMutability": "view",
      "type": "function"
    },
    {
      "inputs": [],
      "name": "getOrganisations",
      "outputs": [
        {
          "components": [
            {
              "internalType": "string",
              "name": "tokenName",
              "type": "string"
            },
            {
              "internalType": "string",
              "name": "tokenSymbol",
              "type": "string"
            },
            {
              "internalType": "address",
              "name": "contractAddress",
              "type": "address"
            },
            {
              "internalType": "address",
              "name": "admin",
              "type": "address"
            }
          ],
          "internalType": "struct Vesting.Organisation[]",
          "name": "",
          "type": "tuple[]"
        }
      ],
      "stateMutability": "view",
      "type": "function"
    },
    {
      "inputs": [
        {
          "internalType": "address",
          "name": "_organisationAddress",
          "type": "address"
        }
      ],
      "name": "getWhiteList",
      "outputs": [
        {
          "components": [
            {
              "internalType": "enum Vesting.UserRole",
              "name": "userType",
              "type": "uint8"
            },
            {
              "internalType": "address",
              "name": "stakeHolderAddress",
              "type": "address"
            },
            {
              "internalType": "uint256",
              "name": "timeLock",
              "type": "uint256"
            },
            {
              "internalType": "uint256",
              "name": "tokens",
              "type": "uint256"
            },
            {
              "internalType": "bool",
              "name": "isWhiteListed",
              "type": "bool"
            }
          ],
          "internalType": "struct Vesting.stakeHolder[]",
          "name": "",
          "type": "tuple[]"
        }
      ],
      "stateMutability": "view",
      "type": "function"
    },
    {
      "inputs": [
        {
          "internalType": "address",
          "name": "_organisationAddress",
          "type": "address"
        },
        {
          "internalType": "enum Vesting.UserRole",
          "name": "_userRole",
          "type": "uint8"
        },
        {
          "internalType": "address",
          "name": "_stakeHolderAddress",
          "type": "address"
        },
        {
          "internalType": "uint256",
          "name": "_tokens",
          "type": "uint256"
        }
      ],
      "name": "mintTokens",
      "outputs": [],
      "stateMutability": "nonpayable",
      "type": "function"
    },
    {
      "inputs": [
        {
          "internalType": "string",
          "name": "_tokenName",
          "type": "string"
        },
        {
          "internalType": "string",
          "name": "_tokenSymbol",
          "type": "string"
        }
      ],
      "name": "registerOrganisation",
      "outputs": [],
      "stateMutability": "nonpayable",
      "type": "function"
    },
    {
      "inputs": [
        {
          "internalType": "enum Vesting.UserRole",
          "name": "_userRole",
          "type": "uint8"
        },
        {
          "internalType": "address",
          "name": "_organisationAddress",
          "type": "address"
        }
      ],
      "name": "whitelist",
      "outputs": [],
      "stateMutability": "nonpayable",
      "type": "function"
    }
  ],
  "bytecode": "0x608060405234801561001057600080fd5b5033600360006101000a81548173ffffffffffffffffffffffffffffffffffffffff021916908373ffffffffffffffffffffffffffffffffffffffff160217905550613d44806100616000396000f3fe60806040523480156200001157600080fd5b5060043610620000885760003560e01c8063aa50bd591162000063578063aa50bd591462000119578063eaffd4291462000139578063f1ecbaf1146200015b578063fadc3754146200017b5762000088565b80630b635b8c146200008d5780639a0bef1a14620000ad5780639dfe9d6814620000e3575b600080fd5b620000ab6004803603810190620000a591906200187a565b6200019b565b005b620000cb6004803603810190620000c59190620018c1565b62000392565b604051620000da919062001b00565b60405180910390f35b620001016004803603810190620000fb919062001b24565b62000534565b60405162000110919062001b00565b60405180910390f35b62000137600480360381019062000131919062001cb8565b62000c9b565b005b6200014362000f78565b60405162000152919062001f12565b60405180910390f35b62000179600480360381019062000173919062001f67565b620011b9565b005b62000199600480360381019062000193919062001fd9565b620013fd565b005b6000808273ffffffffffffffffffffffffffffffffffffffff1673ffffffffffffffffffffffffffffffffffffffff16815260200190815260200160002060030160009054906101000a900473ffffffffffffffffffffffffffffffffffffffff1673ffffffffffffffffffffffffffffffffffffffff163373ffffffffffffffffffffffffffffffffffffffff16146200026d576040517f08c379a00000000000000000000000000000000000000000000000000000000081526004016200026490620020e8565b60405180910390fd5b6000600160008373ffffffffffffffffffffffffffffffffffffffff1673ffffffffffffffffffffffffffffffffffffffff1681526020019081526020016000206000846002811115620002c657620002c562001934565b5b6002811115620002db57620002da62001934565b5b8152602001908152602001600020905060005b8180549050811015620003515760018282815481106200031357620003126200210a565b5b906000526020600020906004020160030160006101000a81548160ff0219169083151502179055508080620003489062002168565b915050620002ee565b507fe756cc322ac3bfd2524f1ee061b9a29051364a41c47f42f4b6e688dda6185586838360405162000385929190620021d8565b60405180910390a1505050565b6060600160008473ffffffffffffffffffffffffffffffffffffffff1673ffffffffffffffffffffffffffffffffffffffff1681526020019081526020016000206000836002811115620003eb57620003ea62001934565b5b60028111156200040057620003ff62001934565b5b8152602001908152602001600020805480602002602001604051908101604052809291908181526020016000905b828210156200052857838290600052602060002090600402016040518060a00160405290816000820160009054906101000a900460ff1660028111156200047a576200047962001934565b5b60028111156200048f576200048e62001934565b5b81526020016000820160019054906101000a900473ffffffffffffffffffffffffffffffffffffffff1673ffffffffffffffffffffffffffffffffffffffff1673ffffffffffffffffffffffffffffffffffffffff16815260200160018201548152602001600282015481526020016003820160009054906101000a900460ff161515151581525050815260200190600101906200042e565b50505050905092915050565b6060600160008373ffffffffffffffffffffffffffffffffffffffff1673ffffffffffffffffffffffffffffffffffffffff16815260200190815260200160002060008060028111156200058d576200058c62001934565b5b6002811115620005a257620005a162001934565b5b8152602001908152602001600020600081548110620005c657620005c56200210a565b5b906000526020600020906004020160030160009054906101000a900460ff16156200078b57600160008373ffffffffffffffffffffffffffffffffffffffff1673ffffffffffffffffffffffffffffffffffffffff168152602001908152602001600020600080600281111562000642576200064162001934565b5b600281111562000657576200065662001934565b5b8152602001908152602001600020805480602002602001604051908101604052809291908181526020016000905b828210156200077f57838290600052602060002090600402016040518060a00160405290816000820160009054906101000a900460ff166002811115620006d157620006d062001934565b5b6002811115620006e657620006e562001934565b5b81526020016000820160019054906101000a900473ffffffffffffffffffffffffffffffffffffffff1673ffffffffffffffffffffffffffffffffffffffff1673ffffffffffffffffffffffffffffffffffffffff16815260200160018201548152602001600282015481526020016003820160009054906101000a900460ff1615151515815250508152602001906001019062000685565b50505050905062000c96565b600160008373ffffffffffffffffffffffffffffffffffffffff1673ffffffffffffffffffffffffffffffffffffffff1681526020019081526020016000206000600280811115620007e257620007e162001934565b5b6002811115620007f757620007f662001934565b5b81526020019081526020016000206000815481106200081b576200081a6200210a565b5b906000526020600020906004020160030160009054906101000a900460ff1615620009e057600160008373ffffffffffffffffffffffffffffffffffffffff1673ffffffffffffffffffffffffffffffffffffffff168152602001908152602001600020600060028081111562000897576200089662001934565b5b6002811115620008ac57620008ab62001934565b5b8152602001908152602001600020805480602002602001604051908101604052809291908181526020016000905b82821015620009d457838290600052602060002090600402016040518060a00160405290816000820160009054906101000a900460ff16600281111562000926576200092562001934565b5b60028111156200093b576200093a62001934565b5b81526020016000820160019054906101000a900473ffffffffffffffffffffffffffffffffffffffff1673ffffffffffffffffffffffffffffffffffffffff1673ffffffffffffffffffffffffffffffffffffffff16815260200160018201548152602001600282015481526020016003820160009054906101000a900460ff16151515158152505081526020019060010190620008da565b50505050905062000c96565b600160008373ffffffffffffffffffffffffffffffffffffffff1673ffffffffffffffffffffffffffffffffffffffff16815260200190815260200160002060006001600281111562000a385762000a3762001934565b5b600281111562000a4d5762000a4c62001934565b5b815260200190815260200160002060008154811062000a715762000a706200210a565b5b906000526020600020906004020160030160009054906101000a900460ff161562000c3757600160008373ffffffffffffffffffffffffffffffffffffffff1673ffffffffffffffffffffffffffffffffffffffff16815260200190815260200160002060006001600281111562000aee5762000aed62001934565b5b600281111562000b035762000b0262001934565b5b8152602001908152602001600020805480602002602001604051908101604052809291908181526020016000905b8282101562000c2b57838290600052602060002090600402016040518060a00160405290816000820160009054906101000a900460ff16600281111562000b7d5762000b7c62001934565b5b600281111562000b925762000b9162001934565b5b81526020016000820160019054906101000a900473ffffffffffffffffffffffffffffffffffffffff1673ffffffffffffffffffffffffffffffffffffffff1673ffffffffffffffffffffffffffffffffffffffff16815260200160018201548152602001600282015481526020016003820160009054906101000a900460ff1615151515815250508152602001906001019062000b31565b50505050905062000c96565b600067ffffffffffffffff81111562000c555762000c5462001b71565b5b60405190808252806020026020018201604052801562000c9257816020015b62000c7e620016bf565b81526020019060019003908162000c745790505b5090505b919050565b6000828260405162000cad906200171b565b62000cba92919062002246565b604051809103906000f08015801562000cd7573d6000803e3d6000fd5b509050600060405180608001604052808581526020018481526020018373ffffffffffffffffffffffffffffffffffffffff1681526020013373ffffffffffffffffffffffffffffffffffffffff1681525090506002819080600181540180825580915050600190039060005260206000209060040201600090919091909150600082015181600001908051906020019062000d7592919062001729565b50602082015181600101908051906020019062000d9492919062001729565b5060408201518160020160006101000a81548173ffffffffffffffffffffffffffffffffffffffff021916908373ffffffffffffffffffffffffffffffffffffffff16021790555060608201518160030160006101000a81548173ffffffffffffffffffffffffffffffffffffffff021916908373ffffffffffffffffffffffffffffffffffffffff1602179055505050806000808473ffffffffffffffffffffffffffffffffffffffff1673ffffffffffffffffffffffffffffffffffffffff168152602001908152602001600020600082015181600001908051906020019062000e8292919062001729565b50602082015181600101908051906020019062000ea192919062001729565b5060408201518160020160006101000a81548173ffffffffffffffffffffffffffffffffffffffff021916908373ffffffffffffffffffffffffffffffffffffffff16021790555060608201518160030160006101000a81548173ffffffffffffffffffffffffffffffffffffffff021916908373ffffffffffffffffffffffffffffffffffffffff1602179055509050507fe25294771b4f7f1a15f4b25940b6b0446723aede200b1298002df436362638298484843360405162000f6a949392919062002281565b60405180910390a150505050565b60606002805480602002602001604051908101604052809291908181526020016000905b82821015620011b0578382906000526020600020906004020160405180608001604052908160008201805462000fd2906200230b565b80601f016020809104026020016040519081016040528092919081815260200182805462001000906200230b565b8015620010515780601f10620010255761010080835404028352916020019162001051565b820191906000526020600020905b8154815290600101906020018083116200103357829003601f168201915b505050505081526020016001820180546200106c906200230b565b80601f01602080910402602001604051908101604052809291908181526020018280546200109a906200230b565b8015620010eb5780601f10620010bf57610100808354040283529160200191620010eb565b820191906000526020600020905b815481529060010190602001808311620010cd57829003601f168201915b505050505081526020016002820160009054906101000a900473ffffffffffffffffffffffffffffffffffffffff1673ffffffffffffffffffffffffffffffffffffffff1673ffffffffffffffffffffffffffffffffffffffff1681526020016003820160009054906101000a900473ffffffffffffffffffffffffffffffffffffffff1673ffffffffffffffffffffffffffffffffffffffff1673ffffffffffffffffffffffffffffffffffffffff16815250508152602001906001019062000f9c565b50505050905090565b8173ffffffffffffffffffffffffffffffffffffffff163373ffffffffffffffffffffffffffffffffffffffff1614620011f257600080fd5b6000600160008673ffffffffffffffffffffffffffffffffffffffff1673ffffffffffffffffffffffffffffffffffffffff16815260200190815260200160002060008560028111156200124b576200124a62001934565b5b600281111562001260576200125f62001934565b5b8152602001908152602001600020905060005b81805490508110156200134357828282815481106200129757620012966200210a565b5b9060005260206000209060040201600201541015620012ed576040517f08c379a0000000000000000000000000000000000000000000000000000000008152600401620012e49062002391565b60405180910390fd5b828282815481106200130457620013036200210a565b5b90600052602060002090600402016002016000828254620013269190620023b3565b9250508190555080806200133a9062002168565b91505062001273565b5060008590508073ffffffffffffffffffffffffffffffffffffffff166340c10f1985856040518363ffffffff1660e01b815260040162001386929190620023ff565b600060405180830381600087803b158015620013a157600080fd5b505af1158015620013b6573d6000803e3d6000fd5b505050507f30385c845b448a36257a6a1716e6ad2e1bc2cbe333cde1e69fe849ad6511adfe8484604051620013ed929190620023ff565b60405180910390a1505050505050565b6000808273ffffffffffffffffffffffffffffffffffffffff1673ffffffffffffffffffffffffffffffffffffffff16815260200190815260200160002060030160009054906101000a900473ffffffffffffffffffffffffffffffffffffffff1673ffffffffffffffffffffffffffffffffffffffff163373ffffffffffffffffffffffffffffffffffffffff1614620014cf576040517f08c379a0000000000000000000000000000000000000000000000000000000008152600401620014c6906200247c565b60405180910390fd5b600160008273ffffffffffffffffffffffffffffffffffffffff1673ffffffffffffffffffffffffffffffffffffffff168152602001908152602001600020600086600281111562001526576200152562001934565b5b60028111156200153b576200153a62001934565b5b81526020019081526020016000206040518060a001604052808760028111156200156a576200156962001934565b5b81526020018673ffffffffffffffffffffffffffffffffffffffff16815260200185815260200184815260200160001515815250908060018154018082558091505060019003906000526020600020906004020160009091909190915060008201518160000160006101000a81548160ff02191690836002811115620015f557620015f462001934565b5b021790555060208201518160000160016101000a81548173ffffffffffffffffffffffffffffffffffffffff021916908373ffffffffffffffffffffffffffffffffffffffff160217905550604082015181600101556060820151816002015560808201518160030160006101000a81548160ff02191690831515021790555050507fe8e9c69544c14229dac4d68cf12694e2e24460e2f20ed4915d88ead94f57b8808186868686604051620016b09594939291906200249e565b60405180910390a15050505050565b6040518060a0016040528060006002811115620016e157620016e062001934565b5b8152602001600073ffffffffffffffffffffffffffffffffffffffff16815260200160008152602001600081526020016000151581525090565b61181380620024fc83390190565b82805462001737906200230b565b90600052602060002090601f0160209004810192826200175b5760008555620017a7565b82601f106200177657805160ff1916838001178555620017a7565b82800160010185558215620017a7579182015b82811115620017a657825182559160200191906001019062001789565b5b509050620017b69190620017ba565b5090565b5b80821115620017d5576000816000905550600101620017bb565b5090565b6000604051905090565b600080fd5b600080fd5b60038110620017fb57600080fd5b50565b6000813590506200180f81620017ed565b92915050565b600073ffffffffffffffffffffffffffffffffffffffff82169050919050565b6000620018428262001815565b9050919050565b620018548162001835565b81146200186057600080fd5b50565b600081359050620018748162001849565b92915050565b60008060408385031215620018945762001893620017e3565b5b6000620018a485828601620017fe565b9250506020620018b78582860162001863565b9150509250929050565b60008060408385031215620018db57620018da620017e3565b5b6000620018eb8582860162001863565b9250506020620018fe85828601620017fe565b9150509250929050565b600081519050919050565b600082825260208201905092915050565b6000819050602082019050919050565b7f4e487b7100000000000000000000000000000000000000000000000000000000600052602160045260246000fd5b6003811062001977576200197662001934565b5b50565b60008190506200198a8262001963565b919050565b60006200199c826200197a565b9050919050565b620019ae816200198f565b82525050565b620019bf8162001835565b82525050565b6000819050919050565b620019da81620019c5565b82525050565b60008115159050919050565b620019f781620019e0565b82525050565b60a08201600082015162001a156000850182620019a3565b50602082015162001a2a6020850182620019b4565b50604082015162001a3f6040850182620019cf565b50606082015162001a546060850182620019cf565b50608082015162001a696080850182620019ec565b50505050565b600062001a7d8383620019fd565b60a08301905092915050565b6000602082019050919050565b600062001aa38262001908565b62001aaf818562001913565b935062001abc8362001924565b8060005b8381101562001af357815162001ad7888262001a6f565b975062001ae48362001a89565b92505060018101905062001ac0565b5085935050505092915050565b6000602082019050818103600083015262001b1c818462001a96565b905092915050565b60006020828403121562001b3d5762001b3c620017e3565b5b600062001b4d8482850162001863565b91505092915050565b600080fd5b600080fd5b6000601f19601f8301169050919050565b7f4e487b7100000000000000000000000000000000000000000000000000000000600052604160045260246000fd5b62001bab8262001b60565b810181811067ffffffffffffffff8211171562001bcd5762001bcc62001b71565b5b80604052505050565b600062001be2620017d9565b905062001bf0828262001ba0565b919050565b600067ffffffffffffffff82111562001c135762001c1262001b71565b5b62001c1e8262001b60565b9050602081019050919050565b82818337600083830152505050565b600062001c5162001c4b8462001bf5565b62001bd6565b90508281526020810184848401111562001c705762001c6f62001b5b565b5b62001c7d84828562001c2b565b509392505050565b600082601f83011262001c9d5762001c9c62001b56565b5b813562001caf84826020860162001c3a565b91505092915050565b6000806040838503121562001cd25762001cd1620017e3565b5b600083013567ffffffffffffffff81111562001cf35762001cf2620017e8565b5b62001d018582860162001c85565b925050602083013567ffffffffffffffff81111562001d255762001d24620017e8565b5b62001d338582860162001c85565b9150509250929050565b600081519050919050565b600082825260208201905092915050565b6000819050602082019050919050565b600081519050919050565b600082825260208201905092915050565b60005b8381101562001da557808201518184015260208101905062001d88565b8381111562001db5576000848401525b50505050565b600062001dc88262001d69565b62001dd4818562001d74565b935062001de681856020860162001d85565b62001df18162001b60565b840191505092915050565b6000608083016000830151848203600086015262001e1b828262001dbb565b9150506020830151848203602086015262001e37828262001dbb565b915050604083015162001e4e6040860182620019b4565b50606083015162001e636060860182620019b4565b508091505092915050565b600062001e7c838362001dfc565b905092915050565b6000602082019050919050565b600062001e9e8262001d3d565b62001eaa818562001d48565b93508360208202850162001ebe8562001d59565b8060005b8581101562001f00578484038952815162001ede858262001e6e565b945062001eeb8362001e84565b925060208a0199505060018101905062001ec2565b50829750879550505050505092915050565b6000602082019050818103600083015262001f2e818462001e91565b905092915050565b62001f4181620019c5565b811462001f4d57600080fd5b50565b60008135905062001f618162001f36565b92915050565b6000806000806080858703121562001f845762001f83620017e3565b5b600062001f948782880162001863565b945050602062001fa787828801620017fe565b935050604062001fba8782880162001863565b925050606062001fcd8782880162001f50565b91505092959194509250565b600080600080600060a0868803121562001ff85762001ff7620017e3565b5b60006200200888828901620017fe565b95505060206200201b8882890162001863565b94505060406200202e8882890162001f50565b9350506060620020418882890162001f50565b9250506080620020548882890162001863565b9150509295509295909350565b600082825260208201905092915050565b7f4f6e6c792061646d696e732063616e2057686974656c697374205374616b656860008201527f6f6c646572730000000000000000000000000000000000000000000000000000602082015250565b6000620020d060268362002061565b9150620020dd8262002072565b604082019050919050565b600060208201905081810360008301526200210381620020c1565b9050919050565b7f4e487b7100000000000000000000000000000000000000000000000000000000600052603260045260246000fd5b7f4e487b7100000000000000000000000000000000000000000000000000000000600052601160045260246000fd5b60006200217582620019c5565b91507fffffffffffffffffffffffffffffffffffffffffffffffffffffffffffffffff821415620021ab57620021aa62002139565b5b600182019050919050565b620021c1816200198f565b82525050565b620021d28162001835565b82525050565b6000604082019050620021ef6000830185620021b6565b620021fe6020830184620021c7565b9392505050565b6000620022128262001d69565b6200221e818562002061565b93506200223081856020860162001d85565b6200223b8162001b60565b840191505092915050565b6000604082019050818103600083015262002262818562002205565b9050818103602083015262002278818462002205565b90509392505050565b600060808201905081810360008301526200229d818762002205565b90508181036020830152620022b3818662002205565b9050620022c46040830185620021c7565b620022d36060830184620021c7565b95945050505050565b7f4e487b7100000000000000000000000000000000000000000000000000000000600052602260045260246000fd5b600060028204905060018216806200232457607f821691505b602082108114156200233b576200233a620022dc565b5b50919050565b7f4e6f7420456e6f75676820546f6b656e73000000000000000000000000000000600082015250565b60006200237960118362002061565b9150620023868262002341565b602082019050919050565b60006020820190508181036000830152620023ac816200236a565b9050919050565b6000620023c082620019c5565b9150620023cd83620019c5565b925082821015620023e357620023e262002139565b5b828203905092915050565b620023f981620019c5565b82525050565b6000604082019050620024166000830185620021c7565b620024256020830184620023ee565b9392505050565b7f4f6e6c792061646d696e732063616e20616464205374616b65686f6c64657273600082015250565b60006200246460208362002061565b915062002471826200242c565b602082019050919050565b60006020820190508181036000830152620024978162002455565b9050919050565b600060a082019050620024b56000830188620021c7565b620024c46020830187620021b6565b620024d36040830186620021c7565b620024e26060830185620023ee565b620024f16080830184620023ee565b969550505050505056fe60806040523480156200001157600080fd5b5060405162001813380380620018138339818101604052810190620000379190620002c2565b818181600390805190602001906200005192919062000075565b5080600490805190602001906200006a92919062000075565b5050505050620003ac565b828054620000839062000376565b90600052602060002090601f016020900481019282620000a75760008555620000f3565b82601f10620000c257805160ff1916838001178555620000f3565b82800160010185558215620000f3579182015b82811115620000f2578251825591602001919060010190620000d5565b5b50905062000102919062000106565b5090565b5b808211156200012157600081600090555060010162000107565b5090565b6000604051905090565b600080fd5b600080fd5b600080fd5b600080fd5b6000601f19601f8301169050919050565b7f4e487b7100000000000000000000000000000000000000000000000000000000600052604160045260246000fd5b6200018e8262000143565b810181811067ffffffffffffffff82111715620001b057620001af62000154565b5b80604052505050565b6000620001c562000125565b9050620001d3828262000183565b919050565b600067ffffffffffffffff821115620001f657620001f562000154565b5b620002018262000143565b9050602081019050919050565b60005b838110156200022e57808201518184015260208101905062000211565b838111156200023e576000848401525b50505050565b60006200025b6200025584620001d8565b620001b9565b9050828152602081018484840111156200027a57620002796200013e565b5b620002878482856200020e565b509392505050565b600082601f830112620002a757620002a662000139565b5b8151620002b984826020860162000244565b91505092915050565b60008060408385031215620002dc57620002db6200012f565b5b600083015167ffffffffffffffff811115620002fd57620002fc62000134565b5b6200030b858286016200028f565b925050602083015167ffffffffffffffff8111156200032f576200032e62000134565b5b6200033d858286016200028f565b9150509250929050565b7f4e487b7100000000000000000000000000000000000000000000000000000000600052602260045260246000fd5b600060028204905060018216806200038f57607f821691505b60208210811415620003a657620003a562000347565b5b50919050565b61145780620003bc6000396000f3fe608060405234801561001057600080fd5b50600436106100b45760003560e01c806340c10f191161007157806340c10f19146101a357806370a08231146101bf57806395d89b41146101ef578063a457c2d71461020d578063a9059cbb1461023d578063dd62ed3e1461026d576100b4565b806306fdde03146100b9578063095ea7b3146100d757806318160ddd1461010757806323b872dd14610125578063313ce567146101555780633950935114610173575b600080fd5b6100c161029d565b6040516100ce9190610ca5565b60405180910390f35b6100f160048036038101906100ec9190610d60565b61032f565b6040516100fe9190610dbb565b60405180910390f35b61010f610352565b60405161011c9190610de5565b60405180910390f35b61013f600480360381019061013a9190610e00565b61035c565b60405161014c9190610dbb565b60405180910390f35b61015d61038b565b60405161016a9190610e6f565b60405180910390f35b61018d60048036038101906101889190610d60565b610394565b60405161019a9190610dbb565b60405180910390f35b6101bd60048036038101906101b89190610d60565b6103cb565b005b6101d960048036038101906101d49190610e8a565b6103d9565b6040516101e69190610de5565b60405180910390f35b6101f7610421565b6040516102049190610ca5565b60405180910390f35b61022760048036038101906102229190610d60565b6104b3565b6040516102349190610dbb565b60405180910390f35b61025760048036038101906102529190610d60565b61052a565b6040516102649190610dbb565b60405180910390f35b61028760048036038101906102829190610eb7565b61054d565b6040516102949190610de5565b60405180910390f35b6060600380546102ac90610f26565b80601f01602080910402602001604051908101604052809291908181526020018280546102d890610f26565b80156103255780601f106102fa57610100808354040283529160200191610325565b820191906000526020600020905b81548152906001019060200180831161030857829003601f168201915b5050505050905090565b60008061033a6105d4565b90506103478185856105dc565b600191505092915050565b6000600254905090565b6000806103676105d4565b90506103748582856107a7565b61037f858585610833565b60019150509392505050565b60006012905090565b60008061039f6105d4565b90506103c08185856103b1858961054d565b6103bb9190610f87565b6105dc565b600191505092915050565b6103d58282610aab565b5050565b60008060008373ffffffffffffffffffffffffffffffffffffffff1673ffffffffffffffffffffffffffffffffffffffff168152602001908152602001600020549050919050565b60606004805461043090610f26565b80601f016020809104026020016040519081016040528092919081815260200182805461045c90610f26565b80156104a95780601f1061047e576101008083540402835291602001916104a9565b820191906000526020600020905b81548152906001019060200180831161048c57829003601f168201915b5050505050905090565b6000806104be6105d4565b905060006104cc828661054d565b905083811015610511576040517f08c379a00000000000000000000000000000000000000000000000000000000081526004016105089061104f565b60405180910390fd5b61051e82868684036105dc565b60019250505092915050565b6000806105356105d4565b9050610542818585610833565b600191505092915050565b6000600160008473ffffffffffffffffffffffffffffffffffffffff1673ffffffffffffffffffffffffffffffffffffffff16815260200190815260200160002060008373ffffffffffffffffffffffffffffffffffffffff1673ffffffffffffffffffffffffffffffffffffffff16815260200190815260200160002054905092915050565b600033905090565b600073ffffffffffffffffffffffffffffffffffffffff168373ffffffffffffffffffffffffffffffffffffffff16141561064c576040517f08c379a0000000000000000000000000000000000000000000000000000000008152600401610643906110e1565b60405180910390fd5b600073ffffffffffffffffffffffffffffffffffffffff168273ffffffffffffffffffffffffffffffffffffffff1614156106bc576040517f08c379a00000000000000000000000000000000000000000000000000000000081526004016106b390611173565b60405180910390fd5b80600160008573ffffffffffffffffffffffffffffffffffffffff1673ffffffffffffffffffffffffffffffffffffffff16815260200190815260200160002060008473ffffffffffffffffffffffffffffffffffffffff1673ffffffffffffffffffffffffffffffffffffffff168152602001908152602001600020819055508173ffffffffffffffffffffffffffffffffffffffff168373ffffffffffffffffffffffffffffffffffffffff167f8c5be1e5ebec7d5bd14f71427d1e84f3dd0314c0f7b2291e5b200ac8c7c3b9258360405161079a9190610de5565b60405180910390a3505050565b60006107b3848461054d565b90507fffffffffffffffffffffffffffffffffffffffffffffffffffffffffffffffff811461082d578181101561081f576040517f08c379a0000000000000000000000000000000000000000000000000000000008152600401610816906111df565b60405180910390fd5b61082c84848484036105dc565b5b50505050565b600073ffffffffffffffffffffffffffffffffffffffff168373ffffffffffffffffffffffffffffffffffffffff1614156108a3576040517f08c379a000000000000000000000000000000000000000000000000000000000815260040161089a90611271565b60405180910390fd5b600073ffffffffffffffffffffffffffffffffffffffff168273ffffffffffffffffffffffffffffffffffffffff161415610913576040517f08c379a000000000000000000000000000000000000000000000000000000000815260040161090a90611303565b60405180910390fd5b61091e838383610c02565b60008060008573ffffffffffffffffffffffffffffffffffffffff1673ffffffffffffffffffffffffffffffffffffffff168152602001908152602001600020549050818110156109a4576040517f08c379a000000000000000000000000000000000000000000000000000000000815260040161099b90611395565b60405180910390fd5b8181036000808673ffffffffffffffffffffffffffffffffffffffff1673ffffffffffffffffffffffffffffffffffffffff16815260200190815260200160002081905550816000808573ffffffffffffffffffffffffffffffffffffffff1673ffffffffffffffffffffffffffffffffffffffff168152602001908152602001600020600082825401925050819055508273ffffffffffffffffffffffffffffffffffffffff168473ffffffffffffffffffffffffffffffffffffffff167fddf252ad1be2c89b69c2b068fc378daa952ba7f163c4a11628f55a4df523b3ef84604051610a929190610de5565b60405180910390a3610aa5848484610c07565b50505050565b600073ffffffffffffffffffffffffffffffffffffffff168273ffffffffffffffffffffffffffffffffffffffff161415610b1b576040517f08c379a0000000000000000000000000000000000000000000000000000000008152600401610b1290611401565b60405180910390fd5b610b2760008383610c02565b8060026000828254610b399190610f87565b92505081905550806000808473ffffffffffffffffffffffffffffffffffffffff1673ffffffffffffffffffffffffffffffffffffffff168152602001908152602001600020600082825401925050819055508173ffffffffffffffffffffffffffffffffffffffff16600073ffffffffffffffffffffffffffffffffffffffff167fddf252ad1be2c89b69c2b068fc378daa952ba7f163c4a11628f55a4df523b3ef83604051610bea9190610de5565b60405180910390a3610bfe60008383610c07565b5050565b505050565b505050565b600081519050919050565b600082825260208201905092915050565b60005b83811015610c46578082015181840152602081019050610c2b565b83811115610c55576000848401525b50505050565b6000601f19601f8301169050919050565b6000610c7782610c0c565b610c818185610c17565b9350610c91818560208601610c28565b610c9a81610c5b565b840191505092915050565b60006020820190508181036000830152610cbf8184610c6c565b905092915050565b600080fd5b600073ffffffffffffffffffffffffffffffffffffffff82169050919050565b6000610cf782610ccc565b9050919050565b610d0781610cec565b8114610d1257600080fd5b50565b600081359050610d2481610cfe565b92915050565b6000819050919050565b610d3d81610d2a565b8114610d4857600080fd5b50565b600081359050610d5a81610d34565b92915050565b60008060408385031215610d7757610d76610cc7565b5b6000610d8585828601610d15565b9250506020610d9685828601610d4b565b9150509250929050565b60008115159050919050565b610db581610da0565b82525050565b6000602082019050610dd06000830184610dac565b92915050565b610ddf81610d2a565b82525050565b6000602082019050610dfa6000830184610dd6565b92915050565b600080600060608486031215610e1957610e18610cc7565b5b6000610e2786828701610d15565b9350506020610e3886828701610d15565b9250506040610e4986828701610d4b565b9150509250925092565b600060ff82169050919050565b610e6981610e53565b82525050565b6000602082019050610e846000830184610e60565b92915050565b600060208284031215610ea057610e9f610cc7565b5b6000610eae84828501610d15565b91505092915050565b60008060408385031215610ece57610ecd610cc7565b5b6000610edc85828601610d15565b9250506020610eed85828601610d15565b9150509250929050565b7f4e487b7100000000000000000000000000000000000000000000000000000000600052602260045260246000fd5b60006002820490506001821680610f3e57607f821691505b60208210811415610f5257610f51610ef7565b5b50919050565b7f4e487b7100000000000000000000000000000000000000000000000000000000600052601160045260246000fd5b6000610f9282610d2a565b9150610f9d83610d2a565b9250827fffffffffffffffffffffffffffffffffffffffffffffffffffffffffffffffff03821115610fd257610fd1610f58565b5b828201905092915050565b7f45524332303a2064656372656173656420616c6c6f77616e63652062656c6f7760008201527f207a65726f000000000000000000000000000000000000000000000000000000602082015250565b6000611039602583610c17565b915061104482610fdd565b604082019050919050565b600060208201905081810360008301526110688161102c565b9050919050565b7f45524332303a20617070726f76652066726f6d20746865207a65726f2061646460008201527f7265737300000000000000000000000000000000000000000000000000000000602082015250565b60006110cb602483610c17565b91506110d68261106f565b604082019050919050565b600060208201905081810360008301526110fa816110be565b9050919050565b7f45524332303a20617070726f766520746f20746865207a65726f20616464726560008201527f7373000000000000000000000000000000000000000000000000000000000000602082015250565b600061115d602283610c17565b915061116882611101565b604082019050919050565b6000602082019050818103600083015261118c81611150565b9050919050565b7f45524332303a20696e73756666696369656e7420616c6c6f77616e6365000000600082015250565b60006111c9601d83610c17565b91506111d482611193565b602082019050919050565b600060208201905081810360008301526111f8816111bc565b9050919050565b7f45524332303a207472616e736665722066726f6d20746865207a65726f20616460008201527f6472657373000000000000000000000000000000000000000000000000000000602082015250565b600061125b602583610c17565b9150611266826111ff565b604082019050919050565b6000602082019050818103600083015261128a8161124e565b9050919050565b7f45524332303a207472616e7366657220746f20746865207a65726f206164647260008201527f6573730000000000000000000000000000000000000000000000000000000000602082015250565b60006112ed602383610c17565b91506112f882611291565b604082019050919050565b6000602082019050818103600083015261131c816112e0565b9050919050565b7f45524332303a207472616e7366657220616d6f756e742065786365656473206260008201527f616c616e63650000000000000000000000000000000000000000000000000000602082015250565b600061137f602683610c17565b915061138a82611323565b604082019050919050565b600060208201905081810360008301526113ae81611372565b9050919050565b7f45524332303a206d696e7420746f20746865207a65726f206164647265737300600082015250565b60006113eb601f83610c17565b91506113f6826113b5565b602082019050919050565b6000602082019050818103600083015261141a816113de565b905091905056fea26469706673582212208d0f0ca4d0018bef7218a2e4289d9aa22417753e3634f8433b9962920bb3926564736f6c63430008090033a26469706673582212202a7dee6eca727f8013b88f0132df5a8f67aabac42e6b333d87a352c571053bc664736f6c63430008090033",
  "linkReferences": {},
  "deployedLinkReferences": {}
}